{"_format":"hh-sol-artifact-1","contractName":"Marketplace","sourceName":"contracts/marketplace.sol","abi":[{"inputs":[{"internalType":"address","name":"_nftAddress","type":"address"},{"internalType":"address payable","name":"_seller","type":"address"}],"stateMutability":"nonpayable","type":"constructor"},{"anonymous":false,"inputs":[{"indexed":false,"internalType":"uint256","name":"itemid","type":"uint256"},{"indexed":false,"internalType":"uint256","name":"price","type":"uint256"},{"indexed":true,"internalType":"address","name":"owner","type":"address"}],"name":"Bought","type":"event"},{"inputs":[],"name":"getBalance","outputs":[{"internalType":"uint256","name":"","type":"uint256"}],"stateMutability":"view","type":"function"},{"inputs":[{"internalType":"uint256","name":"","type":"uint256"}],"name":"items","outputs":[{"internalType":"address","name":"owner","type":"address"},{"internalType":"uint256","name":"price","type":"uint256"},{"internalType":"bool","name":"sold","type":"bool"},{"internalType":"uint256","name":"itemid","type":"uint256"}],"stateMutability":"view","type":"function"},{"inputs":[{"internalType":"uint256","name":"_nftID","type":"uint256"},{"internalType":"uint256","name":"_price","type":"uint256"}],"name":"makeItem","outputs":[],"stateMutability":"payable","type":"function"},{"inputs":[],"name":"nftAddress","outputs":[{"internalType":"address","name":"","type":"address"}],"stateMutability":"view","type":"function"},{"inputs":[{"internalType":"uint256","name":"_itemId","type":"uint256"}],"name":"purchaseItem","outputs":[],"stateMutability":"payable","type":"function"},{"inputs":[],"name":"seller","outputs":[{"internalType":"address payable","name":"","type":"address"}],"stateMutability":"view","type":"function"}],"bytecode":"0x60a06040523480156200001157600080fd5b5060405162000cad38038062000cad833981810160405281019062000037919062000162565b8073ffffffffffffffffffffffffffffffffffffffff1660808173ffffffffffffffffffffffffffffffffffffffff1681525050816000806101000a81548173ffffffffffffffffffffffffffffffffffffffff021916908373ffffffffffffffffffffffffffffffffffffffff1602179055505050620001a9565b600080fd5b600073ffffffffffffffffffffffffffffffffffffffff82169050919050565b6000620000e582620000b8565b9050919050565b620000f781620000d8565b81146200010357600080fd5b50565b6000815190506200011781620000ec565b92915050565b60006200012a82620000b8565b9050919050565b6200013c816200011d565b81146200014857600080fd5b50565b6000815190506200015c8162000131565b92915050565b600080604083850312156200017c576200017b620000b3565b5b60006200018c8582860162000106565b92505060206200019f858286016200014b565b9150509250929050565b608051610ada620001d3600039600081816101550152818161017901526105750152610ada6000f3fe6080604052600436106100555760003560e01c806308551a531461005a5780630a50e3be1461008557806312065fe0146100a15780635bf8633a146100cc578063bfb231d2146100f7578063d38ea5bf14610137575b600080fd5b34801561006657600080fd5b5061006f610153565b60405161007c91906106d4565b60405180910390f35b61009f600480360381019061009a919061072a565b610177565b005b3480156100ad57600080fd5b506100b66103a6565b6040516100c39190610779565b60405180910390f35b3480156100d857600080fd5b506100e16103ae565b6040516100ee91906107b5565b60405180910390f35b34801561010357600080fd5b5061011e600480360381019061011991906107d0565b6103d2565b60405161012e9493929190610818565b60405180910390f35b610151600480360381019061014c91906107d0565b61042f565b005b7f000000000000000000000000000000000000000000000000000000000000000081565b7f000000000000000000000000000000000000000000000000000000000000000073ffffffffffffffffffffffffffffffffffffffff163373ffffffffffffffffffffffffffffffffffffffff1614610205576040517f08c379a00000000000000000000000000000000000000000000000000000000081526004016101fc906108ba565b60405180910390fd5b60008111610248576040517f08c379a000000000000000000000000000000000000000000000000000000000815260040161023f90610926565b60405180910390fd5b60008054906101000a900473ffffffffffffffffffffffffffffffffffffffff1673ffffffffffffffffffffffffffffffffffffffff166323b872dd3330856040518463ffffffff1660e01b81526004016102a593929190610946565b600060405180830381600087803b1580156102bf57600080fd5b505af11580156102d3573d6000803e3d6000fd5b5050505060405180608001604052803073ffffffffffffffffffffffffffffffffffffffff168152602001828152602001600015158152602001838152506001600084815260200190815260200160002060008201518160000160006101000a81548173ffffffffffffffffffffffffffffffffffffffff021916908373ffffffffffffffffffffffffffffffffffffffff1602179055506020820151816001015560408201518160020160006101000a81548160ff021916908315150217905550606082015181600301559050505050565b600047905090565b60008054906101000a900473ffffffffffffffffffffffffffffffffffffffff1681565b60016020528060005260406000206000915090508060000160009054906101000a900473ffffffffffffffffffffffffffffffffffffffff16908060010154908060020160009054906101000a900460ff16908060030154905084565b600060016000838152602001908152602001600020905060008160010154905080341015610492576040517f08c379a0000000000000000000000000000000000000000000000000000000008152600401610489906109ef565b60405180910390fd5b8160020160009054906101000a900460ff16156104e4576040517f08c379a00000000000000000000000000000000000000000000000000000000081526004016104db90610a5b565b60405180910390fd5b60008054906101000a900473ffffffffffffffffffffffffffffffffffffffff1673ffffffffffffffffffffffffffffffffffffffff166323b872dd3033866040518463ffffffff1660e01b815260040161054193929190610946565b600060405180830381600087803b15801561055b57600080fd5b505af115801561056f573d6000803e3d6000fd5b505050507f000000000000000000000000000000000000000000000000000000000000000073ffffffffffffffffffffffffffffffffffffffff166108fc829081150290604051600060405180830381858888f193505050501580156105d9573d6000803e3d6000fd5b5060018260020160006101000a81548160ff021916908315150217905550338260000160006101000a81548173ffffffffffffffffffffffffffffffffffffffff021916908373ffffffffffffffffffffffffffffffffffffffff1602179055503373ffffffffffffffffffffffffffffffffffffffff167fa2a8034590a15fe810e9813d736096c0a03b3236cecb34b5b9f687ed67a6a624848460010154604051610686929190610a7b565b60405180910390a2505050565b600073ffffffffffffffffffffffffffffffffffffffff82169050919050565b60006106be82610693565b9050919050565b6106ce816106b3565b82525050565b60006020820190506106e960008301846106c5565b92915050565b600080fd5b6000819050919050565b610707816106f4565b811461071257600080fd5b50565b600081359050610724816106fe565b92915050565b60008060408385031215610741576107406106ef565b5b600061074f85828601610715565b925050602061076085828601610715565b9150509250929050565b610773816106f4565b82525050565b600060208201905061078e600083018461076a565b92915050565b600061079f82610693565b9050919050565b6107af81610794565b82525050565b60006020820190506107ca60008301846107a6565b92915050565b6000602082840312156107e6576107e56106ef565b5b60006107f484828501610715565b91505092915050565b60008115159050919050565b610812816107fd565b82525050565b600060808201905061082d60008301876107a6565b61083a602083018661076a565b6108476040830185610809565b610854606083018461076a565b95945050505050565b600082825260208201905092915050565b7f6d6573736167652073656e646572206973206e6f7420612073656c6c65720000600082015250565b60006108a4601e8361085d565b91506108af8261086e565b602082019050919050565b600060208201905081810360008301526108d381610897565b9050919050565b7f5072696365206d7573742062652067726561746572207468616e207a65726f00600082015250565b6000610910601f8361085d565b915061091b826108da565b602082019050919050565b6000602082019050818103600083015261093f81610903565b9050919050565b600060608201905061095b60008301866107a6565b61096860208301856107a6565b610975604083018461076a565b949350505050565b7f6e6f7420656e6f75676820657468657220746f20636f766572206974656d207060008201527f7269636520616e64206d61726b65742066656500000000000000000000000000602082015250565b60006109d960338361085d565b91506109e48261097d565b604082019050919050565b60006020820190508181036000830152610a08816109cc565b9050919050565b7f6974656d20616c726561647920736f6c64000000000000000000000000000000600082015250565b6000610a4560118361085d565b9150610a5082610a0f565b602082019050919050565b60006020820190508181036000830152610a7481610a38565b9050919050565b6000604082019050610a90600083018561076a565b610a9d602083018461076a565b939250505056fea2646970667358221220eb03484ca6437a2d0c07def56f1c1519ab6f63b1909cd00c3c740b3fa0c8a76764736f6c63430008120033","linkReferences":{},"deployedLinkReferences":{}}